:1000000005280000000000000900831607309F004B
:1000100086018501DF308500831221148601850168
:100020005521E5205521211CDF28EB205521211CDD
:10003000DB28F1205521211CD728F7205521211C30
:10004000D328FD205521211CCF2803215521211C17
:10005000CB2809215521211CC7280F215521211CFE
:10006000C32815215521211CBF281B215521211CE6
:10007000BB282121EB20E5205521211CB528212179
:10008000EB20EB205521211CAF282121EB20F12072
:100090005521211CA9282121EB20F7205521211CC5
:1000A000A328EB20FD205521211C9D28EB200321B6
:1000B0005521211C97282121EB2009215521211CA4
:1000C00091282121EB200F215521211C8B28212152
:1000D000EB2015215521211C85282121EB201B21F6
:1000E0005521211C7F282121F120E5205521211CAB
:1000F00079282121F120E52055212118732821217B
:10010000EB201B21552121186D282121EB201521E1
:100110005521211867282121EB200F215521211875
:1001200061282121EB200921552121185B2821215B
:10013000EB2003215521211856282121EB20FD20F9
:100140005521211851282121EB20F7205521211874
:100150004B282121EB20F120552121184528212170
:10016000EB20EB20552121183F282121EB20E52011
:100170005521211839281B215521211835281521F1
:100180005521211831280F21552121182D28092109
:100190005521211829280321552121182528FD2022
:1001A000552121182128F720552121181D28F1203B
:1001B000552121181928EB20552121181528E52053
:1001C00055212118112839211028C03086003921E5
:1001D0000030A0000800F930860039210130A0006D
:1001E0000800A430860039210230A0000800B03099
:1001F000860039210330A00008009930860039219B
:100200000430A00008009230860039210530A0009B
:1002100008008230860039210630A0000800F8303E
:10022000860039210730A00008008030860039217F
:100230000830A00008009030860039210930A00065
:100240000800FF30860025210800FF30A700FF309E
:10025000A6000000A60B2929A70B27290800FF30BC
:10026000A700FF30A6000000A60B3329A70B3129F9
:100270000800FF30A700FF30A6000000A60B3D29B4
:10028000A70B3B2925212521252100300800B0019D
:10029000051F30143008A000080022180800211C97
:1002A0005329A101080021140800A201851E22146F
:0A02B000851E5B2958294D21080026
:02400E00503F21
:00000001FF
