:1000000005280000000000000900831607309F004B
:1000100086018501FE30850083128601850124203A
:100020002B2032203920402047204E2055205C20B4
:1000300063206A206C206E2070207220742076204D
:1000400078207A207C200F288820C03086007E20EF
:100050002018242808008820F93086007E202018E7
:100060002B2808008820A43086007E202018322803
:1000700008008820B03086007E202018392808002B
:100080008820993086007E2020184028080088208B
:10009000923086007E202018472808008820823071
:1000A00086007E2020184E2808008820F830860020
:1000B0007E202018552808008820803086007E2069
:1000C00020185C2808008820903086007E202018A8
:1000D00063280800632008005C2008005520080001
:1000E0004E20080047200800402008003920080062
:1000F000322008002B200800242008002A30A70006
:10010000FF30A6000000A60B8228A70B802808005D
:0C011000B001051F30143008A0000800EA
:02400E00503F21
:00000001FF
